:100000000C944A020C9467020C9467020C946702E9
:100010000C9467020C9467020C9467020C946702BC
:100020000C9467020C9467020C94C8200C949C21D9
:100030000C94FB1A0C9467020C9467020C946702F0
:100040000C9467020C9467020C9467020C9467028C
:100050000C9467020C94821B0C9467020C94670248
:100060000C9467020C9467020C9467020C9467026C
:100070000C9467020C9467020C9467020C9467025C
:100080000C9467020C9467020C9467020C9467024C
:100090000C9467020C9467020C9467020C9467023C
:1000A0000C9467020C9467020C94670214001A0007
:1000B0000800150017001C0018000C0012001300A7
:1000C00004001600070009000A000B000D000E00D6
:1000D0000F0000001D001B000600190005001E0097
:1000E0001100100036003700E000E70000002C008F
:1000F0002C412C422C00280000002A0014001A0079
:100100000800150017001C0018000C001200130056
:1001100004001600070009000A000B000D000E0085
:100120000F0000001D001B000600190005001E0046
:100130001100100036003700E000E70000002C003E
:100140002C412C422C00280000002A0014001A0028
:100150000800150017001C0018000C001200130006
:1001600004001600070009000A000B000D000E0035
:100170000F0000001D001B000600190005001E00F6
:100180001100100036003700E000E70000002C00EE
:100190002C412C422C00280000002A000000000006
:1001A000000000000000000000000000000000004F
:1001B000000000000000000000000000000000003F
:1001C000000000000000000000000000000000002F
:1001D000000000000000000000000000000000001F
:1001E00000000000000000000000000014001A00E1
:1001F0000800150017001C0018000C001200130066
:1002000004001600070009000A000B000D000E0094
:100210000F0000001D001B000600190005001E0055
:100220001100100036003700E000E70000002C004D
:100230002C412C422C00280000002A000000000065
:10024000000000002A2B2800000000000000000031
:100250000000000000000029000000002C1E3420D7
:10026000212224342627252E362D3738271E1F20FD
:100270002122232425263333362E37381F04050642
:100280000708090A0B0C0D0E0F1011121314151686
:100290001718191A1B1C1D2F3130232D3504050684
:1002A0000708090A0B0C0D0E0F1011121314151666
:1002B0001718191A1B1C1D2F3130354C0000000077
:1002C000000000000000000000000000000000002E
:1002D000000000000000000000000000000000001E
:1002E0007E0F00D4FFFFFFC70000007810036300FB
:1002F0006F006F006C0038003300370000000A0305
:100300006D002E006B00690000000403090409025F
:100310005B00030100A0FA090400000103010100D1
:100320000921110100012240000705810308000195
:10033000090401000203000000092111010001224B
:1003400022000705820320000107050303200001A6
:10035000090402000103000000092111010001222B
:10036000B60007058403200001120100020000000E
:1003700008434D37080001010200010660FF0961D2
:10038000A1010962150026FF009520750881020968
:1003900063150026FF00952075089102C00501092C
:1003A00002A10185020901A1000509190129081509
:1003B00000250195087501810205010930093115F3
:1003C00081257F95027508810609381581257F955D
:1003D0000175088106050C0A38021581257F9501F3
:1003E00075088106C0C005010980A10185031901B6
:1003F0002AB700150126B700950175108100C005C8
:100400000C0901A101850419012AA002150126A0E9
:1004100002950175108100C005010906A10185063C
:10042000050719E029E715002501950875018102E6
:100430000507190029EF1500250195F075018102C6
:1004400005081901290595057501910295017503A6
:100450009101C005010906A101050719E029E71569
:100460000025019508750181029501750881010536
:1004700007190029FF150026FF0095067508810061
:100480000508190129059505750191029501750366
:100490009101C00011241FBECFEFDAE0DEBFCDBF57
:1004A00011E0A0E0B1E0E4E6F8E402C005900D92AE
:1004B000A639B107D9F722E0A6E9B1E001C01D9243
:1004C000A23AB207E1F70E94FA100C9407240C94A8
:1004D000000085E0089581E0089581E008950E947C
:1004E0006D02089508950E9472020895A5E0B0E09B
:1004F000ECE7F2E00C94732349835A8330919D0119
:1005000089819A81311119C0662399F0222389F0DB
:100510000E94F907182F682F89819A810E94D507B8
:1005200069817A81812F0E94E6172596E3E00C9479
:100530008F230E94E707182FF3CF0E94F9076981E4
:100540007A81F1CFFC01262F408151816281738134
:1005500084810E947602089581E00895CF93DF930D
:10056000EC0160E00E94A202BE010E947302DF91D2
:10057000CF910895E1E0F0E0DF0102C0AA0FBB1FB8
:100580006A95E2F7BD01DF0102C0AA0FBB1F4A95C1
:10059000E2F76A2B01C0EE0F2A95EAF7962F98230F
:1005A000961302C08E2B0895E0958E230895242F74
:1005B000462F682F8091AD010E94BA020E94350734
:1005C00008950E949E0F08950E94A20F0895089515
:1005D0000E94C7060E94E7022FEF84E39CE02150AF
:1005E00080409040E1F700C0000008950E94E802BA
:1005F0000E94A61B08950E94E8020E94B71B08955E
:100600000F931F93CF93DF938C0161E00E94A202AE
:10061000EC01B8010E94F013811106C080E0DF9167
:10062000CF911F910F910895B801CE010E946F02E2
:100630008823A1F3B801CE010E942C19882371F3FD
:10064000B801CE010E94DF14882341F3B801CE0126
:100650000E949E18882311F3F8018281882361F09B
:10066000CA35FDE5DF0701F158F4C115ECE5DE07F9
:1006700091F0CE3DDC4591F0C8010E946B02CFCFD6
:10068000CC358DE5D80769F090F0C73ADD45A1F784
:100690000E94FB02C3CF0E94F602C0CF0E94B20CA0
:1006A000F7CF0E94EC0BE8CF0E94F60BE5CF0E943B
:1006B000FA0BE2CF0E94D71A0E94770308950E9496
:1006C0007B030E94DC1A089508950E946403089534
:1006D00081E008950E94680308950895CF93C82F7C
:1006E0000E9465038C2F0E946A03CF91089580E0D9
:1006F0000E946E0308950E9488190E946E03089557
:10070000CF930E948819C82F809198018C1779F097
:10071000C09398010E94671B6093990170939A019E
:1007200080939B0190939C018C2F0E946E03CF912C
:100730000895ABE0B0E0EFE9F3E00C9474234F834D
:10074000588769877A878B8761110E94370B1E82D1
:100750001D8285E0FE013796DE01119601900D9213
:100760008A95E1F78C819D81892B61F449815A81B9
:100770006B817C818D819E810E94600A2B96E2E0D4
:100780000C94902389819A8189238F3F79F3CE013C
:1007900001960E94AC028111E9CFF0CFFC0180816B
:1007A00091810E9426080895CF93C82F8823B9F01D
:1007B0008CEF8C0F813AA8F46C2F809100019091FE
:1007C00001010E94FD19882329F08C2F0E94F70A4D
:1007D0000E94580B8C2F0E94EF0A0E94580BCF9159
:1007E000089580E28C0F883048F4C77081E001C022
:1007F000880FCA95EAF70E941A0BEFCFEBE5EC0FD2
:10080000E33040F4F0E0EB5BFE4F808190E00E942B
:10081000BD19E5CFE8E5EC0FE73150F4F0E0EE0F5D
:10082000FF1FE95EFE4F808191810E94D319D7CFCF
:10083000C03FA8F28C2F0E947E110E945112CFCF90
:10084000882379F19CEF980F913A28F40E94F70AD7
:100850000E94580B089590E2980F983050F48770DA
:1008600091E001C0990F8A95EAF7892F0E94200B29
:10087000EFCF9BE5980F933028F490E080E00E9442
:10088000BD19089598E5980F973128F490E080E01D
:100890000E94D3190895803F20F00E94D8110E9431
:1008A000511208951F93CF93DF93182FEB010E94ED
:1008B000D403209739F4812F0E942004DF91CF9137
:1008C0001F9108958FE99FE00197F1F700C00000A4
:1008D0002197EFCF70E060E0893311F460E570E0BC
:1008E0000E9452040895882321F00E941A0B0E944E
:1008F000580B0895882321F00E94200B0E94580B6A
:100900000895B0E0A0E0E7E8F4E00C946D236C01FA
:10091000D62FC72FFC011281F580F2949FE0F922B7
:100920000E94100BE82E8823B9F0E12E1123A1F0CC
:100930008C2F807F803421F080E28D0F8830D0F0C2
:100940008091800282FF16C082E00E94BB0B0E9451
:10095000100B91E0E82EE926BC2EB2948FE0B8226D
:10096000FBE0FB1508F468C0EB2DF0E0E75FFB4D02
:100970000C945723E12CF0CF0C2F0F70C07F11F097
:100980000295007F112399F0002359F080E28D0F2A
:10099000883010F0D11107C0802F0E941A0B0E94DE
:1009A000580B8D2F41C0802F0E942A0BF8CF8D2F1E
:1009B0000E942004002309F43FC080E28D0F88309C
:1009C00010F0D11104C0802F0E94200B03C0802F93
:1009D0000E94300B0E94580B2FC00C2F0F70C07F4D
:1009E000C03211F00295007FDD2381F0D13009F48F
:1009F00063C0112309F46DC0FF2009F463C0F60140
:100A0000858180FFCECF8F7085835CC0809180020E
:100A100082FD33C0112359F0002329F0802F0E945A
:100A20001A0B0E94580B80E00E94D40305C080E09E
:100A30000E9420040111C7CFEB2DE850FF0B349723
:100A400020F40E9488190E946E03EE2089F00E9413
:100A50000C0B80FD0DC0F60112820E94060B0E9455
:100A60004907C6010E9487060E94060B0E9455078F
:100A7000CDB7DEB7E9E00C948923112389F0F1109A
:100A800006C00E943A0B802B0E947304D5CF21E050
:100A9000F212F7CF0E943A0B802B0E94410BCCCF71
:100AA000F11006C00E944E0B802F0E947A04C4CF22
:100AB00031E0F31609F2F6CF112331F085E08F15FE
:100AC00008F4BACF802FE0CF94E09F1508F4B4CF9C
:100AD000EBCFFF2049F3D93349F4FFEF27EE33E0A2
:100AE000F15020403040E1F700C000008D2F0E94FF
:100AF0002004A2CF8C2F86958695837069F0813073
:100B000009F09ACF8D2F9C2F9370111102C090E0A5
:100B100080E00E94D31990CF8D2F9C2F93701111DC
:100B200002C090E080E00E94BD1986CF8D2F112376
:100B300029F00E947E110E9451127ECF0E94D8118E
:100B4000FACF8C2F837079F5111176CF4D2F429506
:100B500046954770440F440F8D2F8F70042E01C0AF
:100B6000880F0A94EAF72D2F2071D4FF07C02FE0D9
:100B700030E001C0220F4A95EAF72095C695C69548
:100B8000C370822BC23049F058F4C13019F00E9472
:100B9000230752CF0E941D074FCF0E9429074CCF39
:100BA0000E941A0749CF8695112311F08C2F81706E
:100BB000882309F441CF4D2F429546954770440F45
:100BC000440F8D2F8F70042E01C0880F0A94EAF70E
:100BD0002D2F2071D4FF07C02FE030E001C0220F7D
:100BE0004A95EAF72095C695C695C370822BC23008
:100BF00049F058F4C13019F00E9474071DCF0E94CB
:100C00006E071ACF0E947A0717CF0E94350714CFBC
:100C1000CF70112329F08C2F0E9449078D2F34CFDC
:100C20008D2F0E947A048C2F0E94550705CFD23F4A
:100C300051F160F4D03FB9F0D13F81F0112309F4B4
:100C400049C0F110AECE8C2F8F7121C0D33F11F16E
:100C5000D43FA1F78091800282FD26C08C2F8F7136
:100C6000112311F314C0112349F084E08F1508F407
:100C7000E3CE8C2F8F710E946207DECE95E09F1528
:100C800008F4DACEF6CF8C2F8F711111CDCF0E94E0
:100C90004907D2CE112329F08C2F8F710E94400773
:100CA000CBCE0E943C07C8CE112349F0CF718C2FC8
:100CB0000E94490763E08C2F0E949D0BBDCE81E00E
:100CC0000E94BB0BE1E0EF1508F0B6CE82E00E9477
:100CD000BB0BB2CEF110FFCE8C2F8F71A5CF0F932F
:100CE0001F93CF93DF93EC01688179818A810E9401
:100CF00031088C010E9480070E941907B801CE01BB
:100D00000E948104DF91CF911F910F910895CF939D
:100D1000DF93EC018B819C81892B29F0888199815B
:100D200089238F3F51F4DF91CF910895CE010E9426
:100D30006F06CE010E94AE02F6CFCE010E940003E4
:100D40008111F4CF0E94100B882369F38A818823D4
:100D500051F38091800282FFE6CF82E00E94BB0BBC
:100D6000E2CF90E080E00E94BD1990E080E00E9418
:100D7000D3190E94370B0E94580B0E946D120E94DB
:100D8000511208950E94FF0A0E94B10608950E9420
:100D9000270B0E94C206089592959F70963091F09D
:100DA00058F4925F9F70923058F4803F19F030F4FD
:100DB000883E30F481E008959A5FF4CF843FD1F308
:100DC00080E00895883EB0F3813FD1F7F3CFFC0176
:100DD00083819481892B29F08081918189238F3FA0
:100DE00011F480E00895808191810E9426080E947C
:100DF000CC060895A5E0B0E0E0E0F7E00C947423A1
:100E00002596E2E00C949023A6E0B0E0EAE0F7E05B
:100E10000C9474232696E2E00C94902308950E948B
:100E20000E0708950E940F078093AE010E94B1063D
:100E3000089508950E94120708959091AE01892B9C
:100E40000E94120708959091AE0189230E94120713
:100E500008959091AE0189270E94120708950E947B
:100E60000E0708950E942F0708950E94320780936D
:100E7000AD010E94B106089580E00E9435070895F3
:100E800091E001C0990F8A95EAF7892F0E943507F2
:100E9000089521E030E001C0220F8A95EAF78091A1
:100EA000AD01822B0E943507089521E030E001C09A
:100EB000220F8A95EAF720958091AD0182230E9446
:100EC0003507089521E030E001C0220F8A95EAF746
:100ED0008091AD0182270E94350708959091AD0160
:100EE000892B0E94350708959091AD0189230E94B6
:100EF000350708959091AD0189270E94350708951F
:100F00000895262F277091E001C0990F2A95EAF7DE
:100F100023E0769567952A95E1F7FB01EE0FFF1F19
:100F2000E60FF71FE40FF51F50E040E0682F70E078
:100F30008191DF0111979B01042E02C03695279500
:100F40000A94E2F7217021952827292328272C933A
:100F50004F5F5F4F4330510559F70895A82FA77091
:100F600023E0969587952A95E1F7FC01EE0FFF1F88
:100F7000E80FF91FE60FF71F50E040E080E02191F5
:100F800030E00A2E02C0369527950A94E2F72170C8
:100F90003327042E01C0220F0A94EAF7822B4F5FF9
:100FA0005F4F4330510559F70895262F943070F460
:100FB0008A3060F4682F70E08AE0989F600D711DA0
:100FC00011244EE951E0822F0E9481070895292FB4
:100FD000943068F48A3058F490E06EE971E03AE0B9
:100FE000239F800D911D11240E94AE07089580E07B
:100FF0000895CF92DF92FF920F931F93CF93DF93C9
:101000006C010091AD018091AE01082BC7E0D0E0EA
:1010100010E0FC2EC8010C2E02C0959587950A940D
:10102000E2F780FD0CC02197A0F7F12C8F2DDF9106
:10103000CF911F910F91FF90DF90CF900895B6014F
:101040008C2F0E94790E019771F3F0CFCF93DF932D
:10105000EC010E94F907BE010E94790EDF91CF9149
:1010600008951F93CF93DF93EB0190919D019923F6
:1010700039F0CB010E942608DF91CF911F9108958E
:10108000882369F0CB010E94F907182F682FCE0141
:101090000E94D507BE01812F0E94790EEDCFCB01B2
:1010A0000E94E707182FF6CF1F93CF93DF93C091CD
:1010B000AF0116E08091B0018C1304C0DF91CF9195
:1010C0001F910895D0E01C9FF0011D9FF00D112489
:1010D000EF54FE4F408151816281738184819581FB
:1010E0000E9404072196C770E5CF4091E10150911D
:1010F000E2016091E3017091E4018091E50190913A
:10110000E6010E94040708951F93CF93DF93809117
:10111000E601807F09F049C08091E301882309F44A
:1011200044C08091AF01C091B0016091E101709124
:10113000E201A091E401B091E501D62FD72316E09A
:10114000C81799F190E0109711F0DF3F19F401965C
:101150008770F6CF189F9001199F300D1124F90167
:10116000EF54FE4F41814713F2CF40814613EFCF3A
:1011700042814111ECCF438154814A1B5B0B483CB7
:10118000510528F78091E6018F7080618093E60118
:10119000F901EA54FE4F80818F708061808381EE77
:1011A00091E00E9487060E945408DF91CF911F9121
:1011B0000895A1E1B0E0EFEDF8E00C946C238C0110
:1011C00085E0F801DE011D9601900D928A95E1F708
:1011D000F801E28081EEC82E81E0D82E6091E40112
:1011E0007091E5016115710509F44EC19091E1011D
:1011F0002091E201892F82238F3F09F445C140816C
:101200005181A380B480F090E301F501E61BF70B58
:10121000FF2009F4EAC08091E601382F307FE83CD6
:10122000F10508F0A3C031116DC0FE2C251316C0C6
:10123000941314C0E11012C08F7080618093E60196
:101240000E947508C6010E9487068091E601F80198
:1012500085838F2D6196EAE00C948823A114B10454
:1012600029F0842F85238F3F09F027C180E0F82FD4
:10127000F170DF2E80FF3CC08091AF012091B00162
:1012800036E0821315C04D875E878D859E850E944E
:101290002608292F22952F702230F0F0243018F5DF
:1012A0009F70F1F0F8019581907FD1F4D12C1EC090
:1012B00090E0389FF001399FF00D1124EF54FE4F5C
:1012C0006181651306C06081641303C06281E61208
:1012D0000FC001968770D5CF9F7011F0882331F32E
:1012E000805E883018F3C8010E948706FD2CB1CFBC
:1012F000EE2009F4AECF8091E60181608093E60193
:10130000F12CA7CF251306C0941304C0F801EE20DA
:1013100009F487C0C8010E94E706882319F1EE206E
:1013200009F18091E601803270F02091E101309165
:10133000E20138872F831986BB86AA868C87CE0167
:1013400007960E94870686E0F801A1EEB1E00190C1
:101350000D928A95E1F70E9484080E947508FF2487
:10136000F39477CFC8010E948706F9CF311113C0DB
:101370007A2DB98AA88A6E2D89890E94FA0681EE93
:1013800091E00E94870686E0F60111928A95E9F7BE
:101390000E947508B5CF25130FC094130DC0E1103E
:1013A0000BC0F8018583C8010E94870686E0F6011C
:1013B00011928A95E9F74DCFC8010E94E70688236C
:1013C00089F2EE2079F28091E601803208F4BBCFF9
:1013D0002091E1013091E2013A8329831B82BD8291
:1013E000AC828E83CE010196ACCFE83CF10508F0CB
:1013F0003EC0FE2CEE2009F4B5CF25132AC094136D
:1014000028C08091E60180FD1BC0982F907FC1F01D
:10141000F8018583903F31F0982F907F905F8F7017
:10142000892B8583C8010E94870686E0F801A1EE1A
:10143000B1E001900D928A95E1F70E94750809CFFD
:1014400086E0F801A1EEB1E001900D928A95E1F7F6
:1014500000CFC8010E94E706811175CF8091E60197
:1014600081608093E601C8010E948706F2CE7A2D42
:10147000B98AA88A6E2D89890E94FA0686E0F6014B
:1014800011928A95E9F7D9CFEE2009F46BCFC80104
:101490000E94E706F82E882309F464CF86E0F8015D
:1014A000A1EEB1E001900D928A95E1F781EE91E015
:1014B0000E94CE030E948408C0CF81E08E25D7CE43
:1014C000ACE0B0E0E6E6FAE00C9473234F83588773
:1014D00069877A878B879C87CE0107960E94D908F7
:1014E000882369F08A859B85892B39F04F8158853F
:1014F000842F85238F3F09F06BC016E05FC086E024
:10150000FE013796DE01119601900D928A95E1F762
:101510008A859B85892B89F38F81988589238F3FC5
:1015200061F32091B00130E0C901019687709927DD
:101530004091AF014817190671F40E94C706109236
:10154000B0011092AF0186E0E1EEF1E0DF011D9203
:101550008A95E9F7D2CF96E0929FD001939FB00D84
:101560001124AF54BE4FFE01319601900D929A9511
:10157000E1F78093B0010E945408BFCF819FC00162
:1015800011248F549E4F0E94D9088823E9F0E091DE
:10159000AF011E9FF0011124EF54FE4F4081518195
:1015A00062817381848195810E9404078091AF01DB
:1015B00090E00196877099278093AF018091AF01E9
:1015C0009091B0018913DACF2C96E3E00C948F232D
:1015D00069857A858B859C850E9404078ECF682F4C
:1015E00080910001909101010E947D1A0895682F59
:1015F00080910001909101010E948B1A08958091C1
:101600000001909101010E94991A089580910702AA
:101610008595859585950895809107028770089531
:1016200090910702977081E009F480E0089580911D
:101630002A02089590912A02892B80932A02089504
:10164000809590912A02982390932A0208951092EF
:101650002A02089590912902892B809329020895E6
:1016600080959091290298239093290208951092D1
:101670002902089580910802089508950E943D0B63
:1016800008959091800292FF08C0909108029817E7
:1016900021F0809308020E943E0B08958091080279
:1016A000882329F01092080280E00E943E0B0895E2
:1016B000CF93DF93E0910001F091010180912A0224
:1016C0008083E0910001F0910101808190912902D5
:1016D000892B808390910802992381F0E091000189
:1016E000F09101018081892B80838091000190918C
:1016F00001010E94E91981110E944E0BC091000165
:10170000D091010140E250E067EE71E0CE010E940D
:10171000AF23892B59F080E2FE01A7EEB1E00190E2
:101720000D928A95E1F7CE010E949519DF91CF9134
:10173000089508950E94990B08959091800292FF58
:1017400011C098E0899F90011124622B60930702D9
:101750000E944907809107028595859585950E948D
:101760009A0B08950E94490708951092070280E09D
:101770000E949A0B08959091070280958923809387
:101780000702282F277091F4282F082E000C330B06
:101790009217130659F09091800292FF07C0859529
:1017A000859585950E9455070E94B50B08959091E7
:1017B000800292FB222720F9281769F080FB92F91A
:1017C0009093800280917F02909180020E94290C68
:1017D00082E00E94BB0B08958091800282FB8827E3
:1017E00080F991E089270E94D70B089581E00E943B
:1017F000D70B089580E00E94D70B08956FEF7FEF1D
:1018000090E080E00E94F123089590E080E00E9443
:10181000CD23883E9E4F19F40E948B13089580E0DB
:10182000089582E090E00E94C523089583E090E04F
:101830000E94C5230895CF9384E090E00E94C523C1
:10184000C82F82E290E00E94C523982F8C2FCF9161
:101850000895CF93C92F682F84E090E00E94D3238E
:101860006C2F82E290E00E94D323CF910895AB01C8
:10187000BC018FE090E00E94E5230895AB01BC011C
:1018800083E190E00E94E523089560E070E0CB01E1
:101890000E943E0C089560E070E0CB010E94370C7E
:1018A0000E94450C089568EE7EEF90E080E00E9473
:1018B000F12360E082E090E00E94D32360E083E0C7
:1018C00090E00E94D3231092AE0160E084E090E0AB
:1018D0000E94D32364E082E290E00E94D32360E080
:1018E00085E090E00E94D32360E086E090E00E94D3
:1018F000D3236FEF87E090E00E94D32340E050E0D5
:10190000BA0188E090E00E94E52360E08DE090E07D
:101910000E94D32340E050E0BA0188E190E00E94A9
:10192000E52360E087E190E00E94D32340E050E0AF
:10193000BA018CE190E00E94E52370E060E080E273
:1019400090E00E94F12340E050E0BA0188E190E08D
:101950000E94E52380E00E94A4130E94D3130E94FA
:101960004B0C08950E94530C0895682F8EE090E070
:101970000E94D32308950E94671B609339027093DD
:101980003A0280933B0290933C026093350270933D
:10199000360280933702909338020895089508958F
:1019A0000E94CF0C089508950E94D30C089583E6F9
:1019B0009FE00E947E190E94CE0C0E94D00C0895D8
:1019C00081E008950E94E00C0895089508950E9412
:1019D000E50C0E94E60C08950E94820F0E946D03A0
:1019E00008950E94521B0E94E3130E945B100E9404
:1019F000EC0C0E94D40C0895AAE0B0E0E2E0FDE017
:101A00000C9469230E9471102DE2822E22E0922E06
:101A1000640110E0F601E190F1906F01812F0E94C6
:101A2000A50F1F5F143009F449C0E816F90691F3B9
:101A300080913D0281FD0E94AE0F0E94E20C782E43
:101A400010E0812F0E94A50F7C01F401A190B190BC
:101A50004F018A159B0561F1A826BF2400E0CC2424
:101A6000C394D12CC5018C219D21892BC1F07720F5
:101A7000B1F00E831F8321E0C7018C219D21892BAA
:101A800009F420E028870E945B1B8160782F9A87E9
:101A900089874E815F8168858A850E9499030F5FDF
:101AA000CC0CDD1C0A30F1F6F4013297F182E082B1
:101AB0001F5F143031F60E94BB0C22C0E816F906F5
:101AC00009F0B6CF0E945B1B8C0180912B02909194
:101AD0002C0208171907A1F08FEF89838A831B82D4
:101AE0000E945B1B8160782F9D838C8349815A8182
:101AF0006B818D810E94990310932C0200932B021D
:101B00000E948F120E9480032A96EDE00C94852398
:101B1000CF93DF930E947E0EEC01811521E59207A1
:101B200008F042C0811530E5930708F09FC0883E59
:101B3000910530F5803E910508F094C0883A9105F2
:101B400088F4853A910508F086C08130910509F442
:101B500089C0009709F486C0049708F083C0D0E0DC
:101B6000C0E080C08F3B9105D0F7C85AD0E0CC0FC1
:101B7000DD1FC85BDE4F0990D881C02DD46472C0D0
:101B8000811540E2940750F4C11581E0D80708F0B0
:101B900069C0C03FD10518F3D06564C08115904479
:101BA000F0F2DF70D06A5EC0811535E5930718F555
:101BB000811544E5940708F085C0C11583E5D80771
:101BC00008F06CC0C11522E5D20708F462C0CE014E
:101BD0008370992721E030E002C0220F331F8A95DD
:101BE000E2F7C695C69580E2C89FE0011124C22B9A
:101BF000D32BDC6837C0811539E59307A8F481152C
:101C000048E5940708F063C0C11586E5D80708F0D9
:101C1000A6CF8C2F0E94200FC82FD0E0DC2FCC271E
:101C2000CC27DF71D0621EC081152AE5920708F427
:101C300053C090568115904208F091CF8D2F8F712F
:101C40000E94200F90E0982F882788279F719C0181
:101C50002C2BE901E7CFC55AD0E0CA58DE4FC88126
:101C6000D0E0D064CE01DF91CF91089583709927A1
:101C700021E030E002C0220F331F8A95E2F7C695BB
:101C8000C69540E2C49FE0011124C22BD32BDD682E
:101C9000E9CFDC2FCC27C16FD06AE4CFCE018370AF
:101CA000992721E030E002C0220F331F8A95E2F726
:101CB000C695C69540E2C49FE0011124C22BD32BE8
:101CC000DA68D0CFD82FCC27C46FD06ACBCFD82F2B
:101CD000CC27C06FD06AC6CF8F700E94200F34E02F
:101CE000D695C7953A95E1F7CF709C2FEC01D06956
:101CF000B9CF0E94E6170E94880D08958238910599
:101D0000B9F1B0F48133910509F47DC048F489320A
:101D1000910509F46DC08A32910509F47BC00895DC
:101D20008533910509F45FC08933910509F1089560
:101D3000833E9105D9F138F4803E910529F1823E28
:101D4000910579F10895863E9105D9F1873E910577
:101D500009F43EC0843E910541F52091800221FFA7
:101D600024C080917F0284FD19C087EE90E0089521
:101D700020917F02237009F05AC02091800223FF36
:101D800014C089E290E0089520917F0220FD38C0C0
:101D90003091800230FF09C024FF43C090E080E012
:101DA000089520917F0222FDF7CF089520917F02B0
:101DB00022FD3AC03091800230FD39C024FFF5CFBA
:101DC000EDCF20917F0223FFF0CF24FDE7CFCDCFD1
:101DD00020917F0223FD2EC03091800231FFEECF93
:101DE00084EE90E0089520917F0225FFDECFC9CFD9
:101DF00020917F0225FD21C02091800223FFD5CFB5
:101E000089E390E0D2CF20917F0226FFCECF8AE2F5
:101E100090E0089520917F0226FFC7CF81E390E0F4
:101E2000089583EE90E0089582EE90E0089580EEAC
:101E300090E0089586EE90E0089585E390E008959F
:101E400090917F0292FF06C0282F28712830F9F464
:101E5000877F846093FF06C0282F28712831F1F412
:101E6000877E84612091800220FF06C0382F387160
:101E70003830D9F4877F816021FF06C0282F287170
:101E80002831D1F4877E816194FD877E0895282FC3
:101E900024712430F9F68B7F8860DCCF282F2471E1
:101EA000243101F78B7E8861DDCF382F31713130DD
:101EB00019F78E7F8860E0CF282F2171213121F71B
:101EC0008E7E8861E1CF80E008950E94FE0B089528
:101ED0000E9471102FEF86E791E0215080409040E2
:101EE000E1F700C000000E94711080E00E94A50F81
:101EF00080FF04C00E94650F0E94A61B08950E94E7
:101F0000680F08950E94050C811102C00E94B20C56
:101F10000E94110C80933D020E941B0C9093800242
:101F200080937F020E947F0F0E94160C0E941A0766
:101F30008091AD010E943207089508950E949D0F7F
:101F4000089508950E94A10F0895E82FF0E0EE0F84
:101F5000FF1FE757FD4F808191810895089580EA22
:101F60008A95F1F7089500C008950E94AF0F089573
:101F7000F894E82FE295EF70F0E031A1282F2F7050
:101F800081E090E001C0880F2A95EAF7982F90959C
:101F9000932391A392A1892B82A378940895CF9340
:101FA000DF9386EC0E94B80F87E90E94B80F86E69F
:101FB0000E94B80F84E90E94B80FC9E7D1E0899167
:101FC0008F3F11F00E94B80F81E0C338D807B9F7EE
:101FD000DF91CF910895AF92BF92DF92EF92FF927F
:101FE0000F931F93CF93DF938C01D62EC62FD0E093
:101FF000CE018D579E4F7C01FC0120812F3F09F4BB
:102000004DC0F894E22FE295EF70F0E031A12F700F
:1020100081E090E001C0880F2A95EAF7932F982B72
:1020200091A392A18095892382A378940E94B30FF3
:10203000E9E7F1E043E851E021E030E0B12CA12CE8
:1020400061916F3FA9F1A62FA295AF70B0E0909675
:102050008C9190E06F7002C0959587956A95E2F734
:1020600080FD26C0C901A82AB92A220F331F4E17A6
:102070005F0731F7F70180818F3F11F00E94B80FA1
:1020800061E0A114B10409F460E08D2D0E94B50F48
:10209000CC0FDD1FC00FD11FB982A882DF91CF9175
:1020A0001F910F91FF90EF90DF90BF90AF90089538
:1020B00090E080E0D8CF0E94CF0F88E0E9E8F2E01E
:1020C000DF01982F1D929A95E9F7E1E8F2E0DF0130
:1020D0001D928A95E9F784E00E94AC100E94E1020B
:1020E0000895A8E0B0E0E7E7F0E10C9471238E01D9
:1020F0000F5F1F4F88E0F80111928A95E9F7F12CE4
:102100006F2DC8010E94EB0FF394F4E0FF12F8CF9B
:1021100048E050E0B80181E892E00E94AF2321E05E
:10212000009709F420E0892B41F088E0F801A1E84C
:10213000B2E001900D928A95E1F744E069E872E01F
:1021400081E892E00E94AD10182F0E94E402812FD6
:102150002896E5E00C948D230895CF92DF92EF92BC
:10216000FF921F93CF93DF936C017B01C42F222337
:1021700049F081E0809340020E945B1B90933F02F4
:1021800080933E021091400211110AC010E0812F8D
:10219000DF91CF911F91FF90EF90DF90CF90089546
:1021A00080913E0290913F020E94731B059770F34D
:1021B000D0E0CC0FDD1FAE01B601C7010E94AF23F6
:1021C000892B41F0AE01B601C7010E94BC231092D9
:1021D0004002DDCF10E0FBCF0E94A21D0E94F10C57
:1021E0000E94AF1D08950E94B41D0E94FC0C0E9425
:1021F000CE1D08950E94F41A0E94881D0E94D70CDB
:102200000E94EC100E94F3100E94E70CFBCF80911B
:10221000470280FF0DC06091070170E0660F771FD5
:102220006038710570F56115710569F1862F0895A3
:1022300081FF07C06091070184E0689FB00111240D
:10224000EFCF6091070182FD0AC08091460288238A
:10225000A9F02091060160910701821710F088E033
:10226000ECCF869FC001112433E0880F991F3A9567
:10227000E1F7622F70E00E944323D2CF68E070E064
:10228000D5CF8FE7089581E008958091470280FFC0
:102290000CC06091030170E0759567957595679521
:1022A0006115710549F1862F089581FF06C060917F
:1022B000030170E075956795F3CF6091030182FD8E
:1022C0000BC0909145029923A1F060910201809189
:1022D0000301961738F0682F70E06038710500F33D
:1022E0008FE70895899FC001112470E00E94432365
:1022F000F4CF61E070E0D7CF81E00895803F31F402
:102300000E940711819580934B020895813F19F433
:102310000E940711F8CF823F31F40E940711819586
:1023200080934A020895833F19F40E940711F8CF61
:10233000893F29F40E94451180934C0208958A3FF9
:1023400021F40E9445118195F7CF8B3F31F40E9413
:102350004511819580934D0208958C3F19F40E9498
:102360004511F8CF9CE0980F953070F4845F990B7D
:1023700021E030E001C0220F8A95EAF780914902FE
:10238000822B8093490208958D3F31F4809147025A
:1023900081608093470208958E3F21F48091470227
:1023A0008260F7CF8F3FB9F7809147028460F1CF09
:1023B00040914A02803F59F480914B0287FF0DC043
:1023C00010924B0241110BC01092460208C0813F8F
:1023D00081F480914B0218169CF3442381F0809184
:1023E0004C0290914D02892B09F05AC0109245027F
:1023F0000895823F49F447FFF0CF10924A0280913E
:102400004B028111ECCFE0CF833F19F41416ACF3EB
:10241000E4CF90914C02893F29F41916F4F61092FA
:102420004C02DBCF8A3F19F497FFD7CFF8CF9091BA
:102430004D028B3F29F497FFD0CF10924D02CDCFA4
:102440008C3F19F41916CCF3C8CF9CE0980F953047
:1024500090F4845F990B21E030E0B90102C0660F6F
:10246000771F8A95E2F7CB018095909149028923E5
:1024700080934902B2CF8D3F31F4809147028E7F25
:1024800080934702AACF8E3F21F4809147028D7F2F
:10249000F7CF8F3F09F0A1CF809147028B7FF0CF1C
:1024A00008950E945B1B9C0190914A0280914B020F
:1024B000982B21F0309344022093430290914C02D8
:1024C00080914D02982B21F03093420220934102DB
:1024D00088E492E00E94AF19089586E0E8E4F2E013
:1024E000DF011D928A95E9F710924602109245028B
:1024F000109247020895FC01828181110EC08381F0
:1025000081110BC08481811108C091E08581811106
:1025100001C090E0892F8170089581E0FCCFA6E092
:10252000B0E0E5E9F2E10C94732386E0E8E4F2E040
:10253000DE01119601900D928A95E1F710924A0200
:1025400010924B0210924C0210924D028B819C8192
:10255000892B89F080914302909144020E94731B61
:10256000AC01909146029923C9F18091080184172A
:10257000150608F440C08D819E81892B91F08091D1
:102580004102909142020E94731BAC01909145025E
:10259000992309F471C0809104018417150608F489
:1025A00079C0BE016F5F7F4F88E492E00E94AB1A52
:1025B000811105C088E492E00E947B1281110E9483
:1025C000511286E0FE013196A8E4B2E001900D922E
:1025D0008A95E1F72696E3E00C948F232091090178
:1025E0008AE0289F900111242417350720F69F5F69
:1025F0009093460202C09F3FD1F71B81112359F0EF
:102600000E9407119FEF11160CF491E0899F802D15
:10261000112480934A021C81112359F00E94071152
:102620009FEF11160CF491E0899F802D1124809367
:102630004B0230914A02332309F49DCF20914B0283
:10264000222309F498CF45EB3403C00111249923C8
:1026500059F090934A0245EB24039001112433234F
:1026600039F030934B0287CF81E080934A02F3CF59
:1026700081E080934B027FCF209105018AE0289F63
:10268000900111242417350708F08BCF9F5F90939A
:10269000450202C09F3FD1F71D81112359F00E94CE
:1026A00045119FEF11160CF491E0899F802D1124A4
:1026B00080934C021E81112359F00E9445119FEF17
:1026C00011160CF491E0899F802D112480934D0206
:1026D00030914C02332309F464CF20914D02222320
:1026E00009F45FCF45EB3403C0011124992359F05D
:1026F00090934C0245EB240390011124332339F0CD
:1027000030934D024ECF81E080934C02F3CF81E0B5
:1027100080934D0246CF83E290E00E94C52383322E
:1027200089F484E290E00E94C523833059F485E265
:1027300090E00E94C52391E0883109F090E0892F54
:102740008170089580E0FCCFCF93C82F6FEF811187
:1027500063E283E290E00E94D3236FEFC11163E054
:1027600084E290E00E94D3236FEFC11168E185E21B
:1027700090E00E94D323CF910895089586E290E0DF
:102780000E94C523682F70E090E080E008950895CE
:10279000CF93C62F0E94C7136C2F86E290E00E9451
:1027A000D323CF91089580E00E94A41360E070E0ED
:1027B000CB010E94C8130E9460170E94431881E059
:1027C0000E94A41308950E94BD130E94BE130E948C
:1027D000C7130E948B13811102C00E94D313089566
:1027E000CF93FB01C281CC2309F19C0122513F45CB
:1027F0002031310520F582510E945318C0E08C2F02
:10280000CF91089581E00E94490743E062E081E0B2
:102810000E94D702F3CF81E00E94550743E062E0B7
:1028200081E00E94D702EBCF82E0F6CF8031FFE556
:102830009F0789F381319F45B9F3C1E0E0CF803133
:10284000EFE59E07F9F281319F45C9F682E0DBCFC3
:102850002FEFFC0120830895EF92FF920F931F93B7
:10286000CF93DF93EC01062FE881E150E33108F0CC
:102870005DC0F0E0EB5EFB4D0C94572319828AE0BB
:102880008A83602FCE010E945B1CCDB7DEB7E6E0E5
:102890000C948C238981823069F0833071F081300F
:1028A000D9F40E94671B0E945D236A837B838C831B
:1028B0009D83E7CF0E94BE13F6CF7E0110E0812FEB
:1028C0000E94A50FF701928383831F5FF2E0EF0E52
:1028D000F11C1430A1F7D5CF602FCE010E9428142F
:1028E000D0CF89818230C1F76A817B818C819D81C3
:1028F0000E945D230E94C813C4CF4B816A818981E5
:102900000E9422179827892798279D838C83B9CF07
:102910002C813D813227232732274B816A8189818F
:102920000E944417AECF0E946017ABCF8FEF888311
:10293000A8CF0E94F4178983A4CF0E94F617982786
:10294000892798279A8389839CCF6B8170E089813E
:102950009A81AE014C5F5F4F9827892798270E9484
:10296000F9178FCF6B8170E089819A81AE014C5F3E
:102970005F4F9827892798270E941E1882CF0E94B0
:1029800043187FCF0E941017D6CF6B8170E08981EA
:102990009A81AE014C5F5F4F9827892798270E9444
:1029A0009E176FCF6B8170E089819A81AE014C5F79
:1029B0005F4F9827892798270E94C21762CFCF932D
:1029C000DF93EC01FB018281882309F464C1C330E9
:1029D000FDE5DF07E0F5CA3F9CE5D90730F49E012D
:1029E00022503C4524313105D8F50E941B0C9093B0
:1029F000800280937F02C231ECE5DE0709F41FC13B
:102A000008F06EC0C9308CE5D80709F4F2C008F0B0
:102A10003FC0C530ECE5DE0709F4DBC058F5C33034
:102A20008CE5D80709F4CDC008F0CFC080917F02B3
:102A30008160C230DC4509F4AEC080917F02909184
:102A400080020E94290C0E94C70680E009C0C53A96
:102A5000EDE5DE0751F238F4C1369DE5D90729F2DC
:102A6000DF91CF9108959E012D5A3D4523303105C8
:102A7000B8F7BBCF80917F028062C730FCE5DF07EB
:102A800009F489C008F4B1C080917F02806483C0DA
:102A9000CD309CE5D90709F4BAC070F480917F026B
:102AA0008E7FCB30FCE5DF0709F475C008F4A7C0C2
:102AB00080917F028D7F6FC0CF309CE5D90709F4EC
:102AC000B6C008F4A8C0C031FCE5DF0709F4B3C004
:102AD000C131DC4509F0B1CF80917F028F7B5BC0B3
:102AE000CF3F9CE5D90709F4B4C098F5CA3FFCE58F
:102AF000DF0709F472C0B8F4C4319CE5D90709F4C2
:102B0000B6C008F4A2C0C531DC4509F096CF80916B
:102B10007F0282FB992790F921E0922790FB82F9AE
:102B200090FB83F938C0CC3F8CE5D80709F477C017
:102B300008F457C0CD3FECE5DE0709F474C080917E
:102B400080028360CE3FDC4509F077CF809380021E
:102B500074CFC1368DE5D80709F496C068F4C1304A
:102B6000EDE5DE0709F48CC008F477C0C230DD451E
:102B700009F063CF80E085C0CD3A9DE5D907E9F043
:102B800068F490917F02892F8E7F90FF8160C53A13
:102B9000DD4509F052CF80937F024FCFCE3A8DE5CD
:102BA000D80789F1CF3ADD4509F047CF90918002EF
:102BB000892F877F93FF8860C9CF809180028860CA
:102BC000C5CF80917F028260E6CF80917F028460D2
:102BD000E2CF80917F028860DECF809180028160A9
:102BE000B5CF809180028260B1CF80917F028061F9
:102BF000D2CF0E94C70680917F028068CCCF80919F
:102C00007F028C60C8CF80918002877F9FCF8091A8
:102C10007F028B7FC0CF80917F02877FBCCF809166
:102C200080028E7F93CF809180028D7F8FCF8091A5
:102C30007F028F7EB0CF80917F028F7DACCF0E94CC
:102C4000C70680917F028F77A6CF80917F02837F16
:102C5000A2CF809180028C7F79CF80918002982FC3
:102C6000909591708E7F892B90FB81F96FCF0E9498
:102C7000C70690917F02892F97FB87F980588BCFE9
:102C800081E00E94B50CD9CE90917F02892F8F7E72
:102C900094FF806180CF81E0E3CEB0E0A0E0E3E587
:102CA000F6E10C946F23E82FF0E0E45CFD4FD49044
:102CB000282F26952695269530E0F901E452FD4F00
:102CC0000491877010E0082E02C0159507950A94AC
:102CD000E2F701701127F901E453FD4FE490F12C64
:102CE000082E02C0F594E7940A94E2F791E0E922F5
:102CF000FF24F901E454FD4FC491D0E002C0D59502
:102D0000C7958A95E2F7C170DD270115110519F005
:102D100081EE0E94D403E114F10419F086EE0E94C2
:102D2000D4038D2D0E946A04E114F10419F086EE9B
:102D30000E9420040115110519F081EE0E94200463
:102D4000CD2B19F08CE20E946A04CDB7DEB7E7E024
:102D50000C948B23EF92FF920F931F93CF93DF93EB
:102D6000EC01162F0AE08881882309F454C08130D1
:102D700009F04EC08981813099F47E0122E0E20E93
:102D8000F11C8A810E946A04E7012196812F8150FB
:102D900050F3EFE9FFE03197F1F700C00000F7CF03
:102DA000823041F47E0182E0E80EF11C8A810E94AB
:102DB000D403EACF833041F47E01E2E0EE0EF11C51
:102DC0008A810E942004E0CF843011F02196DDCF6B
:102DD0002A81229690E080E0AE014F5F5F4F205342
:102DE000330B2A30310548F0019778F2EFE9FFE024
:102DF0003197F1F700C00000F7CF089FB001099F9D
:102E0000700D1124C901860F971F2981EA01E4CFB3
:102E10000E944D16BACFCDB7DEB7E6E00C948C23F6
:102E200084E0089550E0440F551F94E1699F400DE0
:102E3000511D112490E5899F400D511D1124CA0197
:102E4000879608950F931F93CF93DF938430C8F430
:102E50006430B8F44A30A8F40E9412178C010E9422
:102E6000C523C82FD0E0DC2FCC27C80101960E94D3
:102E7000C5239E01282BC901DF91CF911F910F918E
:102E8000089590E080E0F8CF0F931F93CF93DF93E6
:102E9000122F032F843078F4643068F44A3058F4E9
:102EA0000E941217EC01602F0E94D323612FCE01E4
:102EB00001960E94D323DF91CF911F910F91089526
:102EC000B0E0A0E0E6E6F7E10C946D239CEAC92EA1
:102ED00090E0D92ED0E0C0E07601B12C20C00E9455
:102EE000690221E030E08C171D0641F03CF0F8014A
:102EF000EE0FFF1FEE0DFF1D25913491402F6B2D1E
:102F00008C2F0E9444170F5F1F4F0A30110539F7AD
:102F100084E1E80EF11CB39484E0B81619F010E0D7
:102F200000E0DDCF219680E5C80ED11CC430D1056C
:102F300099F6CDB7DEB7E9E00C948923EF92FF92C2
:102F40000F931F93CF93DF93EC018A017C01E60E70
:102F5000F71ECE018796CE15DF0529F4CDB7DEB773
:102F6000E6E00C948C23C03421E0D20740F40E94A8
:102F7000C523F80180830F5F1F4F2196EACFF80128
:102F80001082F9CFB0E0A0E0E8ECF7E10C946E23FA
:102F90007C016A018C01060F171FEC01CE01879698
:102FA000C017D10729F4CDB7DEB7E8E00C948A2327
:102FB000C03421E0D20740F4FE01EE19FF09EC0D08
:102FC000FD1D60810E94D3232196E8CF462F8430D7
:102FD00040F4743030F46A3020F4672F0E942217D6
:102FE000089590E080E0089580E1089589E992E0F5
:102FF0000895EF92FF920F931F93CF93DF93EC010D
:103000008A017C01E60EF71ECE0189599E4FCE152E
:10301000DF0529F4CDB7DEB7E6E00C948C23C9397F
:1030200022E0D20740F40E94C523F80180830F5F9D
:103030001F4F2196E9CFF8011082F9CFB0E0A0E050
:10304000E4E2F8E10C946E237C016A018C01060F26
:10305000171FEC01CE0189599E4FC017D10729F4E3
:10306000CDB7DEB7E8E00C948A23C93922E0D20755
:1030700040F4FE01EE19FF09EC0DFD1D60810E9478
:10308000D3232196E7CFCF93DF93C7E6D1E060E06B
:10309000CE010E94D3232196C11584E0D807B9F749
:1030A000DF91CF910895A4E0B0E0E9E5F8E10C9458
:1030B0006F23F82E8FE08F1548F18FEF93E00E9479
:1030C000C523811123C007E611E0F11023C0198246
:1030D0001A821B821C82DD24D39478018FEFE81AB8
:1030E000F80AC8010E94C52389831A82882371F0D7
:1030F0009FEF980F9330D8F48A83D9820E5F1F4FC9
:10310000C7010E94C5238B83811112C02496E7E07A
:103110000C948B23011584E01807C1F3C8010E94A9
:10312000C523811101C0FA940F5F1F4FCECF8701D5
:1031300060E0CE0101960E94AA16CFCFCF93DF9315
:10314000EB0186319C4511F50E94170B9A8199235A
:1031500099F08A7A91E009F490E090934E028111FF
:1031600009C089E20E94EF0A0E94580B80E0DF91BB
:10317000CF91089585E3F6CF80914E02811104C06E
:1031800089E20E94F70AF0CF85E3FBCF81E0EFCF21
:103190000F931F93CF93DF93C42FD22FFC01828113
:1031A0008823C9F0409351020E945B1B9093500208
:1031B00080934F0280E28C0F883040F4C77081E02A
:1031C00001C0880FCA95EAF70E947304DF91CF917E
:1031D0001F910F91089510915102141332C08091E4
:1031E0004F02909150020E94731B883C910548F554
:1031F000C0E2CD0F1D17B9F080E2810F883040F496
:10320000177081E001C0880F1A95EAF70E947A04CE
:10321000C83048F481E09D2F977001C0880F9A95BF
:10322000EAF70E947304802F0E946A04C83070F687
:10323000D77081E001C0880FDA95EAF70E947A041E
:10324000C5CF80E28C0F883008F6C77081E001C0DE
:10325000880FCA95EAF7F2CF0F939C01CB01233F69
:103260004CE5340759F1A8F4283DFCE53F0701F18E
:10327000293D4CE53407D1F1273D3C4591F406E268
:1032800021EE41EE67ED7CE50E94C81880E00F91C9
:103290000895253FFCE53F07E9F0B0F0263F3C45A7
:1032A000F9F0FC018281882339F110925102EFCFAD
:1032B00007E225EE45EE68ED7CE5E6CF06E221EE7D
:1032C00040EE63EF7CE5E0CF07E225EE44EE64EFED
:1032D0007CE5DACF06E221EE42EE65EF7CE5D4CF65
:1032E00007E225EE46EE66EF7CE5CECF08E221E070
:1032F00045EE69ED7CE5C8CF81E0C9CF9093970199
:1033000080939601089590935702809356020895F2
:10331000E0915602F0915702309729F00190F08128
:10332000E02D0995089580E00895E0915602F0910E
:103330005702309799F020911601222359F02091DD
:103340007F0227FF07C0DC012C9111962C93119767
:1033500026E02C930280F381E02D09950895E091F9
:103360005602F0915702309739F022E0DC012C939D
:103370000480F581E02D0995089520915402309143
:1033800055022817390771F0909355028093540223
:10339000E0915602F0915702309721F00680F781B4
:1033A000E02D09950895209152023091530228177B
:1033B000390771F09093530280935202E0915602C4
:1033C000F0915702309721F00084F185E02D0995A6
:1033D0000895FC01329680911601882321F0809196
:1033E0007F029EE187FF96E080E0915008F4089507
:1033F00021912223D1F38F5FF8CF662301F1209131
:1034000016012223F1F020917F0227FF1AC0462FD8
:103410004695469546954E3190F4677021E030E030
:1034200002C0220F331F6A95E2F7840F911DFC0141
:10343000828190E02823392381E0232B69F480E006
:103440000895FC01329608962191261721F0E8177D
:10345000F907D1F7F4CF81E008959C01FC01329681
:103460009FEF80E04191461751F09F3F19F44111C1
:1034700001C0982F8F5F8630A9F79F3F09F4089508
:10348000290F311D97FD3A95F90162830895FC01DA
:10349000329608962191261303C0DF0111971C92E2
:1034A000E817F907B9F70895E62FE695E695E6954A
:1034B000EE3168F4E80FF92FF11D677021E030E07C
:1034C00001C0220F6A95EAF78281822B82830895D8
:1034D000E62FE695E695E695EE3170F4E80FF92FC4
:1034E000F11D677021E030E001C0220F6A95EAF714
:1034F000209582812823228308952091160122237A
:1035000039F020917F0227FF03C00E94541A0895CA
:103510000E942D1A089520911601222339F020913E
:103520007F0227FF03C00E94681A08950E94471A6D
:103530000895FC01329680911601882351F0809104
:103540007F0287FF06C08EE1DF011D928A95E9F7B1
:10355000089586E0F9CF46E050E00E94AF2321E0D5
:10356000892B09F420E0822F089508950E94B51A4E
:103570000895811106C081E0809358020E94B61A16
:10358000089582E0F9CF83E0809358020E94B61A32
:1035900008950E94B91A089581E0809358020E940C
:1035A000B61A08950E94CC1A0895089508950E94AD
:1035B000D61A0895089508950E94D51A0895CF93B4
:1035C0000E94DA1A0E9471100E94DB1AC0E08C2F50
:1035D0000E94A50F892B31F4CF5FC430C1F780E082
:1035E000CF91089581E0FCCF85B7806885BF85B70E
:1035F000806885BF08951F921FB61F9211248F9374
:103600009F93AF93BF9380915902811113C0809112
:10361000910290919202A0919302B09194024196EE
:10362000A11DB11D8093910290939202A0939302E9
:10363000B0939402BF91AF919F918F911F901FBE45
:103640001F90189580919902843031F10E945A039D
:103650001092590288E190E020E40FB6F894A89502
:10366000809360000FBE2093600083B7817F8460E9
:1036700083BF83B7816083BF7894889583B78E7F3B
:1036800083BF0FB6F894A8958091600088618093FD
:103690006000109260000FBE08950E94C7060E944D
:1036A0005F03089582E084BD93E095BD9AEF97BDD6
:1036B00080936E0008952FB7F894809191029091B5
:1036C0009202A0919302B09194022FBF08952FB758
:1036D000F89460919102709192028091930290917E
:1036E00094022FBF08959C014FB7F89480919102E6
:1036F00090919202A0919302B09194024FBF821BCD
:10370000930B089578941F921FB61F9211248F93E4
:103710009F93AF93BF938091910290919202A09159
:103720009302B09194020196A11DB11D8093910264
:1037300090939202A0939302B0939402BF91AF91A1
:103740009F918F911F901FBE1F90189587E797E755
:10375000909301088093000888E19AE00FB6F894EE
:10376000A895809360000FBE90936000FFCF88E122
:103770009AE00FB6F894A895809360000FBE9093DE
:103780006000FFCF80917D02089508959C0184E040
:103790008093E9009FEF8091E800915085FD06C07D
:1037A00085ED8A95F1F700009111F5CF8091E80041
:1037B00085FF0CC050E040E066E070E0C9010E9467
:1037C0006D1E8091E8008E778093E8000895CF9376
:1037D000DF93EC01809116018823B1F180917F0283
:1037E00087FF32C060E284E08093E9008FEF909120
:1037F000E800815095FD06C095ED9A95F1F700001F
:103800008111F5CF8091E80085FF1BC080911601E2
:1038100070E050E040E0811104C050E040E068E01A
:1038200070E0CE010E946D1E8091E8008E7780933B
:10383000E80080E2FE01ADE5B2E001900D928A95CC
:10384000E1F7DF91CF91089568E081E0CDCF8093DB
:103850005A0270935C0260935B02809199028430FB
:10386000F9F48093E9008FEF9091E800815095FD85
:1038700006C095ED9A95F1F700008111F5CF809182
:10388000E80085FF0DC050E040E063E070E08AE5AD
:1038900092E00E946D1E8091E8008E778093E80090
:1038A0000895BC0184E00E94271C0895BC0183E0B8
:1038B0000E94271C0895CF93FC01603221F580916E
:1038C0009902843001F5C091E900CF702091EC009D
:1038D000922F917020FD90E8C92B82E08093E9003F
:1038E0008091E80080FF0CC050E040E060E270E0B2
:1038F000CF010E946D1E8091E8008E778093E800D2
:10390000CF70C093E900CF91089580919802811102
:1039100009C00E944C200E94A9208091E20084608E
:103920008093E20008951092980208950E94CC1AA4
:1039300008956091950281E0611101C080E00E94CC
:10394000C31A08959091990281E0943009F080E0C3
:10395000609195020E94C91A089542E061EC81E0ED
:103960000E94C81F42E261EC84E00E94C81F42E24C
:1039700061EC82E00E94C81F42E260EC83E00E949A
:10398000C81F9091990281E0943009F080E0609125
:1039900095020E94B91A089580919B02833009F420
:1039A00063C030F48130E1F1823009F4A0C00895A1
:1039B0008A3009F48CC08B3009F471C0893009F069
:1039C00052C080919A02813209F04DC080919E02CE
:1039D00090919F02009719F0029709F044C08091DE
:1039E000E800877F8093E8008091E80082FF37C07D
:1039F0009091F3008091F200029731F48091F100F0
:103A0000813011F0863021F48091F10080937D02A5
:103A10008091E8008B778093E8000E94FC1F23C010
:103A200080919A02813AF9F48091E800877F80932F
:103A3000E80080919E0290919F02892B61F460E2E0
:103A40008DE592E070E00E940B1F8091E8008B777B
:103A50008093E800089560E090E080E0F3CF8091EB
:103A600099028111C1CF089580919A02813AD9F7C4
:103A700080919E0290919F02892BA9F78091E80086
:103A8000877F8093E8008091E80080FFFCCF8091E1
:103A900016018093F1008091E8008E77BCCF809171
:103AA0009A02813201F780919E0290919F02892BA8
:103AB000D1F68091E800877F8093E8000E94FC1F88
:103AC00080919C02809316010E94C7060895809100
:103AD0009A02813241F68091E800877F8093E80066
:103AE0000E94FC1F80919D0280937E020895809128
:103AF0009A02813A09F0B7CF8091E800877F8093DE
:103B0000E8008091E80080FFFCCF80917E02C1CF69
:103B100084B7877F84BF0FB6F894A8958091600022
:103B2000886180936000109260000FBE80E890E092
:103B30000FB6F89480936100909361000FBE0E94CD
:103B4000D21A08950E944C200E94A920E2EEF0E0D3
:103B500080818460808378940E94282308958AE07D
:103B600091E00E948319089580919902853031F483
:103B700080919902853019F00E944D1B08950E9492
:103B8000221B80919702882399F30E94DF1A8823D1
:103B900079F30E94571E0E94C706EACFA0E2B0E068
:103BA000E4EDFDE10C94742380919902843009F5D1
:103BB00083E08093E9008091E80082FF1AC0809141
:103BC000E80090E085FF09C050E040E060E270E06E
:103BD000CE0101960E94BC1E91E08091E8008B7797
:103BE0008093E800992329F060E2CE0101960E94BB
:103BF0002C14A096E2E00C9490230E94001E0895DD
:103C0000292F33272330310521F168F42130310584
:103C100009F443C02230310509F444C090E080E04B
:103C200030E020E026C02132310551F12232310549
:103C3000A9F76330710590F7FB01EE0FFF1FE65700
:103C4000FE4F2081318169577E4FFB01808190E0DA
:103C500010C099278130910581F0009729F00297D3
:103C6000E9F6ECEEF2E002C0EAE0F3E0849190E0E5
:103C70009F01FA01318320830895EEEFF2E0F6CF41
:103C80006330710558F6660F771FFB01E057FE4F52
:103C90002081318189E090E0ECCF82E190E029E65B
:103CA00033E0E7CF8BE590E02EE033E0E2CF80E138
:103CB00089BD82E189BD09B400FEFDCF8091D800A5
:103CC0008F7D8093D8008091E00082608093E00037
:103CD0008091E00081FDFCCF0895AF92BF92CF921A
:103CE000DF92FF920F931F93CF93DF936C01EB0151
:103CF0008A010E941B20F82E811123C00115110595
:103D000039F0F80180819181C81BD90BC80ED91EEA
:103D1000B12CA12C2097A9F08091E80085FD22C04C
:103D20008091E8008E778093E80001151105A1F0DD
:103D3000F80180819181A80EB91EB182A08285E030
:103D4000F82E8F2DDF91CF911F910F91FF90DF9073
:103D5000CF90BF90AF9008950E941B208823D1F28E
:103D6000F82EEFCFF60181916F018093F10021973A
:103D7000FFEFAF1ABF0ACECFAF92BF92CF92DF92C2
:103D8000FF920F931F93CF93DF936C01EB018A0196
:103D90000E941B20F82E811123C00115110539F056
:103DA000F80180819181C81BD90BC80ED91EB12C96
:103DB000A12C2097A9F08091E80085FD22C0809178
:103DC000E8008B778093E80001151105A1F0F80158
:103DD00080819181A80EB91EB182A08285E0F82E63
:103DE0008F2DDF91CF911F910F91FF90DF90CF909A
:103DF000BF90AF9008950E941B208823D1F2F82E27
:103E0000EFCF8091F100F60181936F012197FFEFD1
:103E1000AF1ABF0ACECFFC018091A0029091A102FF
:103E200086179707A0F06115710529F49091E800B5
:103E30009E779093E80090E06115710551F491111F
:103E400008C08091E80082FF34C080E00895BC0182
:103E5000F2CF809199028823C1F18530C1F1809120
:103E6000E80083FD30C08091E80082FDEACF8091B8
:103E7000E80080FFE1CF8091F3002091F200382F1D
:103E80006115710519F02830310558F091E028309E
:103E9000310509F090E02091E8002E772093E800AA
:103EA000CBCF81918093F100615071092F5F3F4F1B
:103EB000E7CF80919902882341F0853041F08091CD
:103EC000E80083FFBECF81E0089582E0089583E09B
:103ED0000895FC018091A0029091A1028617970796
:103EE000A0F06115710529F48091E8008E77809328
:103EF000E80090E06115710551F4911108C08091BE
:103F0000E80082FF35C080E00895BC01F2CF8091C7
:103F100099028823C9F18530C9F18091E80083FDB9
:103F200031C08091E80082FDEACF8091E80080FFF7
:103F3000E1CF8091F3002091F200382F61157105D7
:103F400019F02830310558F091E02830310509F09A
:103F500090E08091E8008E778093E800CBCF849149
:103F60008093F1003196615071092F5F3F4FE6CF8A
:103F700080919902882341F0853041F08091E800DA
:103F800083FFBDCF81E0089582E0089583E0089526
:103F9000982F973028F08F708093E90081E0089582
:103FA0009093E900242F762F50E0981731F070910C
:103FB000EC002091ED005091F00021FD02C09F5FC8
:103FC000E8CF3091EB003E7F3093EB003091ED0075
:103FD0003D7F3093ED003091EB0031603093EB008A
:103FE0007093EC002093ED005093F0002091EE00D0
:103FF00027FDE5CF80E0089580919A0287FF13C0E6
:104000008091E80082FF06C08091E8008B77809362
:10401000E80004C0809199028111F2CF0895809147
:1040200099028823D9F38091E80080FFF8CF80912E
:10403000E8008E77ECCF2091E4003091E50095E622
:10404000A9012091EC00822F817020FF06C0809191
:10405000E80080FF06C080E008952091E80022FD7E
:104060001AC080919902882389F0853089F0809167
:10407000EB0085FD0FC02091E4003091E500421770
:104080005307F9F29150E1F684E0089582E0089533
:1040900083E0089581E008950E94BB200E94C32020
:1040A000E0EEF0E0808181608083E8EDF0E08081E7
:1040B0008F77808319BCA7EDB0E08C918E7F8C93B5
:1040C00080818F7E80831092980208950F931F93B2
:1040D000CF93DF930E94BB200E94C320C8EDD0E0A5
:1040E00088818F77888388818068888388818F7DA5
:1040F000888319BC1092990210929502109297022F
:104100001092960200EE10E0F80180818B7F808390
:1041100088818160888342E060E080E00E94C81F5F
:10412000E1EEF0E080818E7F8083E2EEF0E080813E
:1041300081608083808188608083F80180818E7FA8
:104140008083888180618883DF91CF911F910F9157
:104150000895E8EDF0E080818F7E8083E7EDF0E068
:1041600080818160808384E082BF81E080939802B7
:104170000E9466200895E8EDF0E080818E7F8083C4
:104180001092E20008951092DA001092E100089572
:104190001F920F920FB60F9211242F933F934F93BC
:1041A0005F936F937F938F939F93AF93BF93EF939F
:1041B000FF938091E10082FF0BC08091E20082FFBB
:1041C00007C08091E1008B7F8093E1000E9427234C
:1041D0008091DA0080FF19C08091D80080FF15C05F
:1041E0008091DA008E7F8093DA008091D90080FF81
:1041F00096C080E189BD82E189BD09B400FEFDCF92
:1042000081E0809399020E94851C8091E10080FFEB
:1042100019C08091E20080FF15C08091E2008E7F7E
:104220008093E2008091E20080618093E2008091BF
:10423000D80080628093D80019BC85E080939902F1
:104240000E94991C8091E10084FF2BC08091E200C4
:1042500084FF27C080E189BD82E189BD89B5982F9F
:10426000917080FFFBCF8091D8008F7D8093D80024
:104270008091E1008F7E8093E1008091E2008F7E4B
:104280008093E2008091E20081608093E20080915F
:104290009502882309F449C084E0809399020E9422
:1042A000A21C8091E10083FF29C08091E20083FF7E
:1042B00025C08091E100877F8093E10082E08093B8
:1042C0009902109295028091E1008E7F8093E10027
:1042D0008091E2008E7F8093E2008091E200806115
:1042E0008093E20042E060E080E00E94C81F80917D
:1042F000F00088608093F0000E94961CFF91EF917F
:10430000BF91AF919F918F917F916F915F914F91ED
:104310003F912F910F900FBE0F901F90189519BCD1
:10432000109299020E94931C70CF8091E30087FD48
:1043300093E090939902B3CF1F920F920FB60F9212
:1043400011242F933F934F935F936F937F938F939A
:104350009F93AF93BF93CF93DF93EF93FF93D0914E
:10436000E900DF708091EC00C82FC17080FDC0E8CB
:104370001092E9008091F000877F8093F00078949C
:104380000E94E0211092E9008091F0008860809303
:10439000F000CD2BCF70C093E900FF91EF91DF913A
:1043A000CF91BF91AF919F918F917F916F915F91CD
:1043B0004F913F912F910F900FBE0F901F90189526
:1043C000AAE2B0E0E6EEF1E20C9473238AE992E00F
:1043D0002091F100FC012193CF01F2E0823A9F0786
:1043E000B9F70E94CC1C8091E80083FF1EC1809128
:1043F0009A0290919B029A3008F017C1E92FF0E0E1
:10440000E85DFB4D0C945723803899F0823809F011
:104410000CC180919E028F70873008F006C1809396
:10442000E9008091EB0085FB882780F91092E90074
:1044300006C08091960290919702911182609091AE
:10444000E800977F9093E8008093F1001092F100CC
:104450008091E8008E77E5C0882309F4D3C08230CC
:1044600009F0E3C080919C028111D6C080919E0228
:104470008F702FEF280F263008F0D7C08093E90007
:104480002091EB0020FFC8C0933031F48091EB0005
:1044900080628093EB00C0C09091EB00906190939C
:1044A000EB0021E030E001C0220F8A95EAF720936B
:1044B000EA001092EA008091EB008860EACF811157
:1044C000B4C010919C021F778091E3008078812B0B
:1044D0008093E3008091E800877F8093E8000E944A
:1044E000FC1F8091E80080FFFCCF8091E300806892
:1044F0008093E30082E0111183E08093990295C0DC
:104500008058823008F091C080919C0290919D0269
:104510008C3D23E09207A1F583E08A838AE28983B8
:104520004FB7F894DE01139620E03EE051E2E32F0E
:10453000F0E050935700E49120FF03C0E295EF7044
:104540003F5FEF708E2F90E0EA30C0F0C7968D93FA
:104550009D932F5F243159F74FBF8091E800877FEB
:104560008093E8006AE270E0CE0101960E940B1F82
:104570008091E8008B778093E80057C0C096E7CF22
:1045800060919E0270919F02AE014F5F5F4F0E944B
:10459000FD1DBC01892B09F448C09091E800977F6C
:1045A0009093E80089819A810E94691FE1CF803849
:1045B000E1F58091E800877F8093E8008091950283
:1045C0008093F10045CF811130C090919C029230D0
:1045D00060F58091E800877F8093E80090939502D2
:1045E0000E94FC1F80919502882311F084E005C091
:1045F0008091E30087FDFACF81E0809399020E94C9
:10460000AD1C13C080919C02813079F481E093301D
:1046100009F080E0809397021092E9008091E80011
:10462000877F8093E8000E94FC1F8091E80083FF51
:104630000AC08091E800877F8093E8008091EB00BA
:1046400080628093EB00AA96E3E00C948F23089598
:10465000CF93809199028823A1F0C091E900CF7097
:104660009091EC00892F817090FD80E8C82B10920A
:10467000E9008091E80083FD0E94E021CF70C093A3
:10468000E900CF91089597FB072E16F4009407D008
:1046900077FD09D00E949B2307FC05D03EF490953E
:1046A00081959F4F0895709561957F4F0895EE0F06
:1046B000FF1F0590F491E02D09946927962769273B
:1046C00078278727782708952F923F924F925F92FD
:1046D0006F927F928F929F92AF92BF92CF92DF9212
:1046E000EF92FF920F931F93CF93DF93CDB7DEB777
:1046F000CA1BDB0B0FB6F894DEBF0FBECDBF09940B
:104700002A88398848885F846E847D848C849B8461
:10471000AA84B984C884DF80EE80FD800C811B816F
:10472000AA81B981CE0FD11D0FB6F894DEBF0FBE9E
:10473000CDBFED010895AA1BBB1B51E107C0AA1F05
:10474000BB1FA617B70710F0A61BB70B881F991F32
:104750005A95A9F780959095BC01CD010895FB016C
:10476000DC0104C08D910190801921F4415050402A
:10477000C8F7881B990B0895FB01DC0102C001906A
:104780000D9241505040D8F70895F999FECF92BD4F
:1047900081BDF89A992780B50895A8E1B0E042E07C
:1047A00050E00C94F923262FF999FECF92BD81BDDC
:1047B000F89A019700B4021639F01FBA20BD0FB65F
:1047C000F894FA9AF99A0FBE08950396272F0E943B
:1047D000D4230E94D323252F0E94D423242F0C946A
:1047E000D4230196272F0E94D4230C94D323DC01D9
:1047F000CB01FC01F999FECF06C0F2BDE1BDF89AEC
:10480000319600B40D9241505040B8F70895F89495
:10481000FFCFBC04BC04ED04ED047A0596051C052D
:104820001C05A1050806170617063E144A14711444
:104830007D14881493149614961496149614961452
:1048400099149D14A514B214BF14C214C514D21423
:1048500004222C2215232C2215235F2280221523CB
:04486000D722E32256
:104864000902280850011E0A1401C21BE71BC61BBB
:10487400561C511CC51B01E200E900EA00B500B654
:1048840000B700CD008301CC008A0192019401217C
:1048940002230224022502260227022A02B300B4BC
:1048A400006F007000818283E200E900EA00B50035
:1048B400B600B700CD008301CC008A0192019401B7
:1048C4002102230224022502260227022A02B3001F
:1048D400B4006F0070008182833534F4F5F6F7314B
:1048E400333236C69766944022B653047B039D0345
:0648F40020033903590303
:00000001FF
